{
  "_format": "hh-sol-artifact-1",
  "contractName": "Campaign",
  "sourceName": "contracts/Campaign.sol",
  "abi": [
    {
      "inputs": [
        {
          "internalType": "uint256",
          "name": "minimum",
          "type": "uint256"
        },
        {
          "internalType": "address",
          "name": "creator",
          "type": "address"
        }
      ],
      "stateMutability": "nonpayable",
      "type": "constructor"
    },
    {
      "inputs": [
        {
          "internalType": "address",
          "name": "",
          "type": "address"
        }
      ],
      "name": "approvals",
      "outputs": [
        {
          "internalType": "bool",
          "name": "",
          "type": "bool"
        }
      ],
      "stateMutability": "view",
      "type": "function"
    },
    {
      "inputs": [
        {
          "internalType": "uint256",
          "name": "index",
          "type": "uint256"
        }
      ],
      "name": "approveRequest",
      "outputs": [],
      "stateMutability": "nonpayable",
      "type": "function"
    },
    {
      "inputs": [
        {
          "internalType": "address",
          "name": "",
          "type": "address"
        }
      ],
      "name": "approvers",
      "outputs": [
        {
          "internalType": "bool",
          "name": "",
          "type": "bool"
        }
      ],
      "stateMutability": "view",
      "type": "function"
    },
    {
      "inputs": [],
      "name": "approversCount",
      "outputs": [
        {
          "internalType": "uint256",
          "name": "",
          "type": "uint256"
        }
      ],
      "stateMutability": "view",
      "type": "function"
    },
    {
      "inputs": [],
      "name": "contribute",
      "outputs": [],
      "stateMutability": "payable",
      "type": "function"
    },
    {
      "inputs": [
        {
          "internalType": "string",
          "name": "_description",
          "type": "string"
        },
        {
          "internalType": "uint256",
          "name": "_value",
          "type": "uint256"
        },
        {
          "internalType": "address payable",
          "name": "_recipient",
          "type": "address"
        }
      ],
      "name": "createRequest",
      "outputs": [],
      "stateMutability": "nonpayable",
      "type": "function"
    },
    {
      "inputs": [
        {
          "internalType": "uint256",
          "name": "index",
          "type": "uint256"
        }
      ],
      "name": "finalizeRequest",
      "outputs": [],
      "stateMutability": "nonpayable",
      "type": "function"
    },
    {
      "inputs": [],
      "name": "manager",
      "outputs": [
        {
          "internalType": "address",
          "name": "",
          "type": "address"
        }
      ],
      "stateMutability": "view",
      "type": "function"
    },
    {
      "inputs": [],
      "name": "minimumContribution",
      "outputs": [
        {
          "internalType": "uint256",
          "name": "",
          "type": "uint256"
        }
      ],
      "stateMutability": "view",
      "type": "function"
    },
    {
      "inputs": [
        {
          "internalType": "uint256",
          "name": "",
          "type": "uint256"
        }
      ],
      "name": "requests",
      "outputs": [
        {
          "internalType": "string",
          "name": "description",
          "type": "string"
        },
        {
          "internalType": "uint256",
          "name": "value",
          "type": "uint256"
        },
        {
          "internalType": "address payable",
          "name": "recipient",
          "type": "address"
        },
        {
          "internalType": "bool",
          "name": "complete",
          "type": "bool"
        },
        {
          "internalType": "uint256",
          "name": "approvalCount",
          "type": "uint256"
        }
      ],
      "stateMutability": "view",
      "type": "function"
    }
  ],
  "bytecode": "0x60806040523480156200001157600080fd5b50604051620010fc380380620010fc8339818101604052810190620000379190620000b5565b80600160006101000a81548173ffffffffffffffffffffffffffffffffffffffff021916908373ffffffffffffffffffffffffffffffffffffffff16021790555081600281905550505062000168565b600081519050620000988162000134565b92915050565b600081519050620000af816200014e565b92915050565b60008060408385031215620000c957600080fd5b6000620000d9858286016200009e565b9250506020620000ec8582860162000087565b9150509250929050565b600062000103826200010a565b9050919050565b600073ffffffffffffffffffffffffffffffffffffffff82169050919050565b6000819050919050565b6200013f81620000f6565b81146200014b57600080fd5b50565b62000159816200012a565b81146200016557600080fd5b50565b610f8480620001786000396000f3fe6080604052600436106100915760003560e01c806382fde0931161005957806382fde093146101a55780638a9cfd55146101d0578063937e09b1146101f9578063d7bb99ba14610224578063d7d1bbdb1461022e57610091565b806303441006146100965780630a144391146100bf578063481c6a75146100fc5780635d0341ba1461012757806381d12c5814610164575b600080fd5b3480156100a257600080fd5b506100bd60048036038101906100b89190610a9c565b610257565b005b3480156100cb57600080fd5b506100e660048036038101906100e19190610a0c565b6103c6565b6040516100f39190610b78565b60405180910390f35b34801561010857600080fd5b506101116103e6565b60405161011e9190610b5d565b60405180910390f35b34801561013357600080fd5b5061014e60048036038101906101499190610a0c565b61040c565b60405161015b9190610b78565b60405180910390f35b34801561017057600080fd5b5061018b60048036038101906101869190610a9c565b61042c565b60405161019c959493929190610b93565b60405180910390f35b3480156101b157600080fd5b506101ba610527565b6040516101c79190610c0d565b60405180910390f35b3480156101dc57600080fd5b506101f760048036038101906101f29190610a35565b61052d565b005b34801561020557600080fd5b5061020e610698565b60405161021b9190610c0d565b60405180910390f35b61022c61069e565b005b34801561023a57600080fd5b5061025560048036038101906102509190610a9c565b610754565b005b600160009054906101000a900473ffffffffffffffffffffffffffffffffffffffff1673ffffffffffffffffffffffffffffffffffffffff163373ffffffffffffffffffffffffffffffffffffffff16146102b157600080fd5b60008082815481106102ec577f4e487b7100000000000000000000000000000000000000000000000000000000600052603260045260246000fd5b90600052602060002090600402019050600260045461030b9190610c9a565b81600301541161031a57600080fd5b8060020160149054906101000a900460ff161561033657600080fd5b8060020160009054906101000a900473ffffffffffffffffffffffffffffffffffffffff1673ffffffffffffffffffffffffffffffffffffffff166108fc82600101549081150290604051600060405180830381858888f193505050501580156103a4573d6000803e3d6000fd5b5060018160020160146101000a81548160ff0219169083151502179055505050565b60036020528060005260406000206000915054906101000a900460ff1681565b600160009054906101000a900473ffffffffffffffffffffffffffffffffffffffff1681565b60056020528060005260406000206000915054906101000a900460ff1681565b6000818154811061043c57600080fd5b906000526020600020906004020160009150905080600001805461045f90610d67565b80601f016020809104026020016040519081016040528092919081815260200182805461048b90610d67565b80156104d85780601f106104ad576101008083540402835291602001916104d8565b820191906000526020600020905b8154815290600101906020018083116104bb57829003601f168201915b5050505050908060010154908060020160009054906101000a900473ffffffffffffffffffffffffffffffffffffffff16908060020160149054906101000a900460ff16908060030154905085565b60045481565b600160009054906101000a900473ffffffffffffffffffffffffffffffffffffffff1673ffffffffffffffffffffffffffffffffffffffff163373ffffffffffffffffffffffffffffffffffffffff161461058757600080fd5b60006040518060a001604052808581526020018481526020018373ffffffffffffffffffffffffffffffffffffffff16815260200160001515815260200160008152509050600081908060018154018082558091505060019003906000526020600020906004020160009091909190915060008201518160000190805190602001906106149291906108c2565b506020820151816001015560408201518160020160006101000a81548173ffffffffffffffffffffffffffffffffffffffff021916908373ffffffffffffffffffffffffffffffffffffffff16021790555060608201518160020160146101000a81548160ff02191690831515021790555060808201518160030155505050505050565b60025481565b60025434116106e2576040517f08c379a00000000000000000000000000000000000000000000000000000000081526004016106d990610bed565b60405180910390fd5b6001600360003373ffffffffffffffffffffffffffffffffffffffff1673ffffffffffffffffffffffffffffffffffffffff16815260200190815260200160002060006101000a81548160ff0219169083151502179055506004600081548092919061074d90610dca565b9190505550565b600080828154811061078f577f4e487b7100000000000000000000000000000000000000000000000000000000600052603260045260246000fd5b90600052602060002090600402019050600360003373ffffffffffffffffffffffffffffffffffffffff1673ffffffffffffffffffffffffffffffffffffffff16815260200190815260200160002060009054906101000a900460ff166107f557600080fd5b600560003373ffffffffffffffffffffffffffffffffffffffff1673ffffffffffffffffffffffffffffffffffffffff16815260200190815260200160002060009054906101000a900460ff161561084c57600080fd5b6001600560003373ffffffffffffffffffffffffffffffffffffffff1673ffffffffffffffffffffffffffffffffffffffff16815260200190815260200160002060006101000a81548160ff0219169083151502179055508060030160008154809291906108b990610dca565b91905055505050565b8280546108ce90610d67565b90600052602060002090601f0160209004810192826108f05760008555610937565b82601f1061090957805160ff1916838001178555610937565b82800160010185558215610937579182015b8281111561093657825182559160200191906001019061091b565b5b5090506109449190610948565b5090565b5b80821115610961576000816000905550600101610949565b5090565b600061097861097384610c4d565b610c28565b90508281526020810184848401111561099057600080fd5b61099b848285610d25565b509392505050565b6000813590506109b281610f09565b92915050565b6000813590506109c781610f20565b92915050565b600082601f8301126109de57600080fd5b81356109ee848260208601610965565b91505092915050565b600081359050610a0681610f37565b92915050565b600060208284031215610a1e57600080fd5b6000610a2c848285016109a3565b91505092915050565b600080600060608486031215610a4a57600080fd5b600084013567ffffffffffffffff811115610a6457600080fd5b610a70868287016109cd565b9350506020610a81868287016109f7565b9250506040610a92868287016109b8565b9150509250925092565b600060208284031215610aae57600080fd5b6000610abc848285016109f7565b91505092915050565b610ace81610cdd565b82525050565b610add81610ccb565b82525050565b610aec81610cef565b82525050565b6000610afd82610c7e565b610b078185610c89565b9350610b17818560208601610d34565b610b2081610ecf565b840191505092915050565b6000610b38601183610c89565b9150610b4382610ee0565b602082019050919050565b610b5781610d1b565b82525050565b6000602082019050610b726000830184610ad4565b92915050565b6000602082019050610b8d6000830184610ae3565b92915050565b600060a0820190508181036000830152610bad8188610af2565b9050610bbc6020830187610b4e565b610bc96040830186610ac5565b610bd66060830185610ae3565b610be36080830184610b4e565b9695505050505050565b60006020820190508181036000830152610c0681610b2b565b9050919050565b6000602082019050610c226000830184610b4e565b92915050565b6000610c32610c43565b9050610c3e8282610d99565b919050565b6000604051905090565b600067ffffffffffffffff821115610c6857610c67610ea0565b5b610c7182610ecf565b9050602081019050919050565b600081519050919050565b600082825260208201905092915050565b6000610ca582610d1b565b9150610cb083610d1b565b925082610cc057610cbf610e42565b5b828204905092915050565b6000610cd682610cfb565b9050919050565b6000610ce882610cfb565b9050919050565b60008115159050919050565b600073ffffffffffffffffffffffffffffffffffffffff82169050919050565b6000819050919050565b82818337600083830152505050565b60005b83811015610d52578082015181840152602081019050610d37565b83811115610d61576000848401525b50505050565b60006002820490506001821680610d7f57607f821691505b60208210811415610d9357610d92610e71565b5b50919050565b610da282610ecf565b810181811067ffffffffffffffff82111715610dc157610dc0610ea0565b5b80604052505050565b6000610dd582610d1b565b91507fffffffffffffffffffffffffffffffffffffffffffffffffffffffffffffffff821415610e0857610e07610e13565b5b600182019050919050565b7f4e487b7100000000000000000000000000000000000000000000000000000000600052601160045260246000fd5b7f4e487b7100000000000000000000000000000000000000000000000000000000600052601260045260246000fd5b7f4e487b7100000000000000000000000000000000000000000000000000000000600052602260045260246000fd5b7f4e487b7100000000000000000000000000000000000000000000000000000000600052604160045260246000fd5b6000601f19601f8301169050919050565b7f4e6f7420656e6f75676820746f6b656e73000000000000000000000000000000600082015250565b610f1281610ccb565b8114610f1d57600080fd5b50565b610f2981610cdd565b8114610f3457600080fd5b50565b610f4081610d1b565b8114610f4b57600080fd5b5056fea264697066735822122012b6c6e35199f6c993eaa9f85ac1474149b0c0bb89c5e3f469fa734221a4368864736f6c63430008040033",
  "linkReferences": {},
  "deployedLinkReferences": {}
}