{
  "_format": "hh-sol-artifact-1",
  "contractName": "Campaign",
  "sourceName": "contracts/Campaign.sol",
  "abi": [
    {
      "inputs": [
        {
          "internalType": "uint256",
          "name": "minimum",
          "type": "uint256"
        },
        {
          "internalType": "address",
          "name": "creator",
          "type": "address"
        }
      ],
      "stateMutability": "nonpayable",
      "type": "constructor"
    },
    {
      "inputs": [
        {
          "internalType": "address",
          "name": "",
          "type": "address"
        }
      ],
      "name": "approvals",
      "outputs": [
        {
          "internalType": "bool",
          "name": "",
          "type": "bool"
        }
      ],
      "stateMutability": "view",
      "type": "function"
    },
    {
      "inputs": [
        {
          "internalType": "uint256",
          "name": "index",
          "type": "uint256"
        }
      ],
      "name": "approveRequest",
      "outputs": [],
      "stateMutability": "nonpayable",
      "type": "function"
    },
    {
      "inputs": [
        {
          "internalType": "address",
          "name": "",
          "type": "address"
        }
      ],
      "name": "approvers",
      "outputs": [
        {
          "internalType": "bool",
          "name": "",
          "type": "bool"
        }
      ],
      "stateMutability": "view",
      "type": "function"
    },
    {
      "inputs": [],
      "name": "approversCount",
      "outputs": [
        {
          "internalType": "uint256",
          "name": "",
          "type": "uint256"
        }
      ],
      "stateMutability": "view",
      "type": "function"
    },
    {
      "inputs": [],
      "name": "contribute",
      "outputs": [],
      "stateMutability": "payable",
      "type": "function"
    },
    {
      "inputs": [
        {
          "internalType": "string",
          "name": "_description",
          "type": "string"
        },
        {
          "internalType": "uint256",
          "name": "_value",
          "type": "uint256"
        },
        {
          "internalType": "address payable",
          "name": "_recipient",
          "type": "address"
        }
      ],
      "name": "createRequest",
      "outputs": [],
      "stateMutability": "nonpayable",
      "type": "function"
    },
    {
      "inputs": [
        {
          "internalType": "uint256",
          "name": "index",
          "type": "uint256"
        }
      ],
      "name": "finalizeRequest",
      "outputs": [],
      "stateMutability": "nonpayable",
      "type": "function"
    },
    {
      "inputs": [],
      "name": "getAllRequests",
      "outputs": [
        {
          "internalType": "string[]",
          "name": "",
          "type": "string[]"
        },
        {
          "internalType": "uint256[]",
          "name": "",
          "type": "uint256[]"
        },
        {
          "internalType": "address[]",
          "name": "",
          "type": "address[]"
        },
        {
          "internalType": "bool[]",
          "name": "",
          "type": "bool[]"
        },
        {
          "internalType": "uint256[]",
          "name": "",
          "type": "uint256[]"
        }
      ],
      "stateMutability": "view",
      "type": "function"
    },
    {
      "inputs": [],
      "name": "getRequestsCount",
      "outputs": [
        {
          "internalType": "uint256",
          "name": "",
          "type": "uint256"
        }
      ],
      "stateMutability": "view",
      "type": "function"
    },
    {
      "inputs": [],
      "name": "getSummary",
      "outputs": [
        {
          "internalType": "uint256",
          "name": "",
          "type": "uint256"
        },
        {
          "internalType": "uint256",
          "name": "",
          "type": "uint256"
        },
        {
          "internalType": "uint256",
          "name": "",
          "type": "uint256"
        },
        {
          "internalType": "uint256",
          "name": "",
          "type": "uint256"
        },
        {
          "internalType": "address",
          "name": "",
          "type": "address"
        }
      ],
      "stateMutability": "view",
      "type": "function"
    },
    {
      "inputs": [],
      "name": "manager",
      "outputs": [
        {
          "internalType": "address",
          "name": "",
          "type": "address"
        }
      ],
      "stateMutability": "view",
      "type": "function"
    },
    {
      "inputs": [],
      "name": "minimumContribution",
      "outputs": [
        {
          "internalType": "uint256",
          "name": "",
          "type": "uint256"
        }
      ],
      "stateMutability": "view",
      "type": "function"
    },
    {
      "inputs": [
        {
          "internalType": "uint256",
          "name": "",
          "type": "uint256"
        }
      ],
      "name": "requests",
      "outputs": [
        {
          "internalType": "string",
          "name": "description",
          "type": "string"
        },
        {
          "internalType": "uint256",
          "name": "value",
          "type": "uint256"
        },
        {
          "internalType": "address payable",
          "name": "recipient",
          "type": "address"
        },
        {
          "internalType": "bool",
          "name": "complete",
          "type": "bool"
        },
        {
          "internalType": "uint256",
          "name": "approvalCount",
          "type": "uint256"
        }
      ],
      "stateMutability": "view",
      "type": "function"
    }
  ],
  "bytecode": "0x60806040523480156200001157600080fd5b5060405162001b5f38038062001b5f8339818101604052810190620000379190620000b5565b80600160006101000a81548173ffffffffffffffffffffffffffffffffffffffff021916908373ffffffffffffffffffffffffffffffffffffffff16021790555081600281905550505062000168565b600081519050620000988162000134565b92915050565b600081519050620000af816200014e565b92915050565b60008060408385031215620000c957600080fd5b6000620000d9858286016200009e565b9250506020620000ec8582860162000087565b9150509250929050565b600062000103826200010a565b9050919050565b600073ffffffffffffffffffffffffffffffffffffffff82169050919050565b6000819050919050565b6200013f81620000f6565b81146200014b57600080fd5b50565b62000159816200012a565b81146200016557600080fd5b50565b6119e780620001786000396000f3fe6080604052600436106100c25760003560e01c806381d12c581161007f578063937e09b111610059578063937e09b114610284578063d7bb99ba146102af578063d7d1bbdb146102b9578063fb1a002a146102e2576100c2565b806381d12c58146101ef57806382fde093146102305780638a9cfd551461025b576100c2565b806303441006146100c75780630a144391146100f05780633410452a1461012d5780634051ddac14610158578063481c6a75146101875780635d0341ba146101b2575b600080fd5b3480156100d357600080fd5b506100ee60048036038101906100e991906110f0565b610311565b005b3480156100fc57600080fd5b5061011760048036038101906101129190611060565b610480565b6040516101249190611493565b60405180910390f35b34801561013957600080fd5b506101426104a0565b60405161014f9190611528565b60405180910390f35b34801561016457600080fd5b5061016d6104ac565b60405161017e959493929190611543565b60405180910390f35b34801561019357600080fd5b5061019c6104f5565b6040516101a99190611402565b60405180910390f35b3480156101be57600080fd5b506101d960048036038101906101d49190611060565b61051b565b6040516101e69190611493565b60405180910390f35b3480156101fb57600080fd5b50610216600480360381019061021191906110f0565b61053b565b6040516102279594939291906114ae565b60405180910390f35b34801561023c57600080fd5b50610245610636565b6040516102529190611528565b60405180910390f35b34801561026757600080fd5b50610282600480360381019061027d9190611089565b61063c565b005b34801561029057600080fd5b506102996107a7565b6040516102a69190611528565b60405180910390f35b6102b76107ad565b005b3480156102c557600080fd5b506102e060048036038101906102db91906110f0565b610863565b005b3480156102ee57600080fd5b506102f76109d1565b60405161030895949392919061141d565b60405180910390f35b600160009054906101000a900473ffffffffffffffffffffffffffffffffffffffff1673ffffffffffffffffffffffffffffffffffffffff163373ffffffffffffffffffffffffffffffffffffffff161461036b57600080fd5b60008082815481106103a6577f4e487b7100000000000000000000000000000000000000000000000000000000600052603260045260246000fd5b9060005260206000209060040201905060026004546103c591906116fd565b8160030154116103d457600080fd5b8060020160149054906101000a900460ff16156103f057600080fd5b8060020160009054906101000a900473ffffffffffffffffffffffffffffffffffffffff1673ffffffffffffffffffffffffffffffffffffffff166108fc82600101549081150290604051600060405180830381858888f1935050505015801561045e573d6000803e3d6000fd5b5060018160020160146101000a81548160ff0219169083151502179055505050565b60036020528060005260406000206000915054906101000a900460ff1681565b60008080549050905090565b600080600080600060025447600080549050600454600160009054906101000a900473ffffffffffffffffffffffffffffffffffffffff16945094509450945094509091929394565b600160009054906101000a900473ffffffffffffffffffffffffffffffffffffffff1681565b60056020528060005260406000206000915054906101000a900460ff1681565b6000818154811061054b57600080fd5b906000526020600020906004020160009150905080600001805461056e906117ca565b80601f016020809104026020016040519081016040528092919081815260200182805461059a906117ca565b80156105e75780601f106105bc576101008083540402835291602001916105e7565b820191906000526020600020905b8154815290600101906020018083116105ca57829003601f168201915b5050505050908060010154908060020160009054906101000a900473ffffffffffffffffffffffffffffffffffffffff16908060020160149054906101000a900460ff16908060030154905085565b60045481565b600160009054906101000a900473ffffffffffffffffffffffffffffffffffffffff1673ffffffffffffffffffffffffffffffffffffffff163373ffffffffffffffffffffffffffffffffffffffff161461069657600080fd5b60006040518060a001604052808581526020018481526020018373ffffffffffffffffffffffffffffffffffffffff1681526020016000151581526020016000815250905060008190806001815401808255809150506001900390600052602060002090600402016000909190919091506000820151816000019080519060200190610723929190610f16565b506020820151816001015560408201518160020160006101000a81548173ffffffffffffffffffffffffffffffffffffffff021916908373ffffffffffffffffffffffffffffffffffffffff16021790555060608201518160020160146101000a81548160ff02191690831515021790555060808201518160030155505050505050565b60025481565b60025434116107f1576040517f08c379a00000000000000000000000000000000000000000000000000000000081526004016107e890611508565b60405180910390fd5b6001600360003373ffffffffffffffffffffffffffffffffffffffff1673ffffffffffffffffffffffffffffffffffffffff16815260200190815260200160002060006101000a81548160ff0219169083151502179055506004600081548092919061085c9061182d565b9190505550565b600080828154811061089e577f4e487b7100000000000000000000000000000000000000000000000000000000600052603260045260246000fd5b90600052602060002090600402019050600360003373ffffffffffffffffffffffffffffffffffffffff1673ffffffffffffffffffffffffffffffffffffffff16815260200190815260200160002060009054906101000a900460ff1661090457600080fd5b600560003373ffffffffffffffffffffffffffffffffffffffff1673ffffffffffffffffffffffffffffffffffffffff16815260200190815260200160002060009054906101000a900460ff161561095b57600080fd5b6001600560003373ffffffffffffffffffffffffffffffffffffffff1673ffffffffffffffffffffffffffffffffffffffff16815260200190815260200160002060006101000a81548160ff0219169083151502179055508060030160008154809291906109c89061182d565b91905055505050565b60608060608060606000808054905067ffffffffffffffff811115610a1f577f4e487b7100000000000000000000000000000000000000000000000000000000600052604160045260246000fd5b604051908082528060200260200182016040528015610a5257816020015b6060815260200190600190039081610a3d5790505b5090506000808054905067ffffffffffffffff811115610a9b577f4e487b7100000000000000000000000000000000000000000000000000000000600052604160045260246000fd5b604051908082528060200260200182016040528015610ac95781602001602082028036833780820191505090505b5090506000808054905067ffffffffffffffff811115610b12577f4e487b7100000000000000000000000000000000000000000000000000000000600052604160045260246000fd5b604051908082528060200260200182016040528015610b405781602001602082028036833780820191505090505b5090506000808054905067ffffffffffffffff811115610b89577f4e487b7100000000000000000000000000000000000000000000000000000000600052604160045260246000fd5b604051908082528060200260200182016040528015610bb75781602001602082028036833780820191505090505b5090506000808054905067ffffffffffffffff811115610c00577f4e487b7100000000000000000000000000000000000000000000000000000000600052604160045260246000fd5b604051908082528060200260200182016040528015610c2e5781602001602082028036833780820191505090505b50905060005b600080549050811015610efa576000808281548110610c7c577f4e487b7100000000000000000000000000000000000000000000000000000000600052603260045260246000fd5b90600052602060002090600402019050806000018054610c9b906117ca565b80601f0160208091040260200160405190810160405280929190818152602001828054610cc7906117ca565b8015610d145780601f10610ce957610100808354040283529160200191610d14565b820191906000526020600020905b815481529060010190602001808311610cf757829003601f168201915b5050505050878381518110610d52577f4e487b7100000000000000000000000000000000000000000000000000000000600052603260045260246000fd5b60200260200101819052508060010154868381518110610d9b577f4e487b7100000000000000000000000000000000000000000000000000000000600052603260045260246000fd5b6020026020010181815250508060020160009054906101000a900473ffffffffffffffffffffffffffffffffffffffff16858381518110610e05577f4e487b7100000000000000000000000000000000000000000000000000000000600052603260045260246000fd5b602002602001019073ffffffffffffffffffffffffffffffffffffffff16908173ffffffffffffffffffffffffffffffffffffffff16815250508060020160149054906101000a900460ff16848381518110610e8a577f4e487b7100000000000000000000000000000000000000000000000000000000600052603260045260246000fd5b6020026020010190151590811515815250508060030154838381518110610eda577f4e487b7100000000000000000000000000000000000000000000000000000000600052603260045260246000fd5b602002602001018181525050508080610ef29061182d565b915050610c34565b5084848484849950995099509950995050505050509091929394565b828054610f22906117ca565b90600052602060002090601f016020900481019282610f445760008555610f8b565b82601f10610f5d57805160ff1916838001178555610f8b565b82800160010185558215610f8b579182015b82811115610f8a578251825591602001919060010190610f6f565b5b509050610f989190610f9c565b5090565b5b80821115610fb5576000816000905550600101610f9d565b5090565b6000610fcc610fc7846115bb565b611596565b905082815260208101848484011115610fe457600080fd5b610fef848285611788565b509392505050565b6000813590506110068161196c565b92915050565b60008135905061101b81611983565b92915050565b600082601f83011261103257600080fd5b8135611042848260208601610fb9565b91505092915050565b60008135905061105a8161199a565b92915050565b60006020828403121561107257600080fd5b600061108084828501610ff7565b91505092915050565b60008060006060848603121561109e57600080fd5b600084013567ffffffffffffffff8111156110b857600080fd5b6110c486828701611021565b93505060206110d58682870161104b565b92505060406110e68682870161100c565b9150509250925092565b60006020828403121561110257600080fd5b60006111108482850161104b565b91505092915050565b60006111258383611184565b60208301905092915050565b600061113d8383611331565b60208301905092915050565b6000611155838361134f565b905092915050565b600061116983836113e4565b60208301905092915050565b61117e81611740565b82525050565b61118d8161172e565b82525050565b61119c8161172e565b82525050565b60006111ad8261162c565b6111b78185611697565b93506111c2836115ec565b8060005b838110156111f35781516111da8882611119565b97506111e583611663565b9250506001810190506111c6565b5085935050505092915050565b600061120b82611637565b61121581856116a8565b9350611220836115fc565b8060005b838110156112515781516112388882611131565b975061124383611670565b925050600181019050611224565b5085935050505092915050565b600061126982611642565b61127381856116b9565b9350836020820285016112858561160c565b8060005b858110156112c157848403895281516112a28582611149565b94506112ad8361167d565b925060208a01995050600181019050611289565b50829750879550505050505092915050565b60006112de8261164d565b6112e881856116ca565b93506112f38361161c565b8060005b8381101561132457815161130b888261115d565b97506113168361168a565b9250506001810190506112f7565b5085935050505092915050565b61133a81611752565b82525050565b61134981611752565b82525050565b600061135a82611658565b61136481856116db565b9350611374818560208601611797565b61137d81611932565b840191505092915050565b600061139382611658565b61139d81856116ec565b93506113ad818560208601611797565b6113b681611932565b840191505092915050565b60006113ce6011836116ec565b91506113d982611943565b602082019050919050565b6113ed8161177e565b82525050565b6113fc8161177e565b82525050565b60006020820190506114176000830184611193565b92915050565b600060a0820190508181036000830152611437818861125e565b9050818103602083015261144b81876112d3565b9050818103604083015261145f81866111a2565b905081810360608301526114738185611200565b9050818103608083015261148781846112d3565b90509695505050505050565b60006020820190506114a86000830184611340565b92915050565b600060a08201905081810360008301526114c88188611388565b90506114d760208301876113f3565b6114e46040830186611175565b6114f16060830185611340565b6114fe60808301846113f3565b9695505050505050565b60006020820190508181036000830152611521816113c1565b9050919050565b600060208201905061153d60008301846113f3565b92915050565b600060a08201905061155860008301886113f3565b61156560208301876113f3565b61157260408301866113f3565b61157f60608301856113f3565b61158c6080830184611193565b9695505050505050565b60006115a06115b1565b90506115ac82826117fc565b919050565b6000604051905090565b600067ffffffffffffffff8211156115d6576115d5611903565b5b6115df82611932565b9050602081019050919050565b6000819050602082019050919050565b6000819050602082019050919050565b6000819050602082019050919050565b6000819050602082019050919050565b600081519050919050565b600081519050919050565b600081519050919050565b600081519050919050565b600081519050919050565b6000602082019050919050565b6000602082019050919050565b6000602082019050919050565b6000602082019050919050565b600082825260208201905092915050565b600082825260208201905092915050565b600082825260208201905092915050565b600082825260208201905092915050565b600082825260208201905092915050565b600082825260208201905092915050565b60006117088261177e565b91506117138361177e565b925082611723576117226118a5565b5b828204905092915050565b60006117398261175e565b9050919050565b600061174b8261175e565b9050919050565b60008115159050919050565b600073ffffffffffffffffffffffffffffffffffffffff82169050919050565b6000819050919050565b82818337600083830152505050565b60005b838110156117b557808201518184015260208101905061179a565b838111156117c4576000848401525b50505050565b600060028204905060018216806117e257607f821691505b602082108114156117f6576117f56118d4565b5b50919050565b61180582611932565b810181811067ffffffffffffffff8211171561182457611823611903565b5b80604052505050565b60006118388261177e565b91507fffffffffffffffffffffffffffffffffffffffffffffffffffffffffffffffff82141561186b5761186a611876565b5b600182019050919050565b7f4e487b7100000000000000000000000000000000000000000000000000000000600052601160045260246000fd5b7f4e487b7100000000000000000000000000000000000000000000000000000000600052601260045260246000fd5b7f4e487b7100000000000000000000000000000000000000000000000000000000600052602260045260246000fd5b7f4e487b7100000000000000000000000000000000000000000000000000000000600052604160045260246000fd5b6000601f19601f8301169050919050565b7f4e6f7420656e6f75676820746f6b656e73000000000000000000000000000000600082015250565b6119758161172e565b811461198057600080fd5b50565b61198c81611740565b811461199757600080fd5b50565b6119a38161177e565b81146119ae57600080fd5b5056fea2646970667358221220c4d55c2eb106464a65d97d5d061158b72690f905aaf0b027f72b086b57d1af0164736f6c63430008040033",
  "linkReferences": {},
  "deployedLinkReferences": {}
}